:020000001628C0
:0E0006008312031325088A00240882000800D4
:1000140003208A110A128000840AA40A0319A50A7B
:08002400F003031D0A28080087
:10002C00013083120313A000A101A201A30101302E
:10003C008316860083128601061C4C288230FC0035
:10004C00DD30FD00FD0B2828FC0B282800000000EB
:10005C000615061C4B28A001A1012208230401301F
:10006C00031D0030A200A3000030A300221840287A
:10007C008610412886148230FC00DD30FD00FD0B1B
:10008C004528FC0B4528000000004F2806184F2877
:06009C0006112228502885
:02400E006A2125
:00000001FF
