:02000000962840
:10000800FF00030E8301AC000A08AD008A017008E6
:10001800A3007B08A2007C08A1007D08A0008B1C1F
:1000280074288614061100302506031D1D28323059
:100038002406031D2A288230FC00DD30FD00FD0B5C
:100048002328FC0B2328000000003E28003025064A
:10005800031D3028C8302406031D3E280330FB004A
:100068000830FC007730FD00FD0B3828FC0B3828E1
:10007800FB0B38288610061500302506031D462878
:1000880032302406031D53288230FC00DD30FD0089
:10009800FD0B4C28FC0B4C280000000067280030A2
:1000A8002506031D5928C8302406031D6728033078
:1000B800FB000830FC007730FD00FD0B6128FC0BCD
:1000C8006128FB0B61282608AA002708AB00240832
:1000D800A6002508A7002A08A4002B08A5008B1055
:1000E8002308F0002208FB002108FC002008FD007E
:0E00F8002D088A002C0E8300FF0E7F0E0900DB
:0E0106008312031329088A00280882000800CB
:1001140083208A110A128000840AA80A0319A90AF2
:08012400F003031D8A28080006
:10012C00C83083120313A400A5013230A600A70126
:10013C000130831686008501073083129F008316D9
:10014C0081018B170B170B168312061105148510E2
:10015C0000302706031DB42832302606031DC128A3
:10016C008230FC00DD30FD00FD0BBA28FC0BBA28F8
:10017C0000000000D52800302706031DC728C83012
:10018C002606031DD5280330FB000830FC00773011
:10019C00FD00FD0BCF28FC0BCF28FB0BCF28051047
:1001AC00851400302706031DDD2832302606031D7A
:1001BC00EA288230FC00DD30FD00FD0BE328FC0B4F
:1001CC00E32800000000FE2800302706031DF0285D
:1001DC00C8302606031DFE280330FB000830FC0047
:1001EC007730FD00FD0BF828FC0BF828FB0BF828EA
:0601FC008B10AA28002967
:02400E0022216D
:00000001FF
