:0200000057287F
:100006008316031386010130831286000130F20045
:100016000030F3008030F000803073067002031D5C
:1000260016287208073C031C2F280608F000F00D5E
:100036007010700886000230FB000430FC00BA30F5
:10004600FD00FD0B2428FC0B2428FB0B24280000B4
:10005600F20A0319F30A0D280730F2000030F30004
:1000660080307306F00080307002031D3C2801309A
:100076007202031C56280608F000F00CF0137008F4
:1000860086000230FB000430FC00BA30FD00FD0B98
:100096004A28FC0B4A28FB0B4A2800000130F202D2
:0800A600031CF30333280800DA
:1000AE000730831203139F00FF3083168500032051
:0400BE005E28602830
:02400E006A2125
:00000001FF
