:020000003D2899
:10000800FF00030E8301A5000A08A6008A017B08E9
:10001800A2007C08A1007D08A0008B1C3028861453
:1000280006110330FB000830FC007730FD00FD0BA3
:100038001B28FC0B1B28FB0B1B28861006150330FE
:10004800FB000830FC007730FD00FD0B2928FC0B75
:100058002928FB0B29288B102208FB002108FC000B
:100068002008FD0026088A00250E8300FF0E7F0E5B
:0200780009007D
:10007A0001308316031386008501073083129F001F
:10008A00831681018B170B170B16831206110514A1
:10009A0085100230FB000430FC00BA30FD00FD0B75
:1000AA005428FC0B5428FB0B542800000510851417
:1000BA000230FB000430FC00BA30FD00FD0B63285F
:1000CA00FC0B6328FB0B632800008B104A286C2862
:02400E0010217F
:00000001FF
