:020000000328D3
:1000060083120313A201A301C33083168600831251
:100016008601061C1628861C16280611861106124D
:1000260086128613A328061C5A28A201A301803033
:100036002306F00080307002031D23280A302202B6
:1000460003184628061586160330FB000830FC0008
:100056007730FD00FD0B2D28FC0B2D28FB0B2D28E2
:10006600061186120230FB000430FC00BA30FD0097
:10007600FD0B3B28FC0B3B28FB0B3B280000A20A90
:100086000319A30A1A28061586160B30FB0026301C
:10009600FC005D30FD00FD0B4E28FC0B4E28FB0BD3
:1000A6004E2800000000061186128617A328861C1B
:1000B6009E28A201A30180302306F0008030700242
:1000C600031D67280930220203188A28861506169A
:1000D6000330FB000830FC007730FD00FD0B712873
:1000E600FC0B7128FB0B7128861106120230FB00EF
:1000F6000430FC00BA30FD00FD0B7F28FC0B7F2886
:10010600FB0B7F280000A20A0319A30A5E288615A6
:1001160006160B30FB002630FC005D30FD00FD0BA3
:100126009228FC0B9228FB0B9228000000008611F7
:1001360006128617A3280611861106128612861342
:040146000C28A428B5
:02400E006A2125
:00000001FF
