:020000001628C0
:0E0006008312031325088A00240882000800D4
:1000140003208A110A128000840AA40A0319A50A7B
:08002400F003031D0A28080087
:10002C0083120313A001A1010130A200A30101302E
:10003C008316860083128601061847280030230693
:10004C00031D2A2801302206031D4728A201A30103
:10005C00200821040130031D0030A000A100003055
:10006C00A10020183B2886103C2886148230FC0006
:10007C00DD30FD00FD0B4028FC0B4028000000008B
:10008C004D28061C4D280130A2000030A300222868
:02009C004E28EC
:02400E0010217F
:00000001FF
