:020000001D2BB6
:0400060000000800EE
:10000A00083083120313FC002330FD00FD0B0B287C
:06001A00FC0B0B2808009E
:10002000103083120313FD00FD0B1428000008009C
:1000300083160313A01B1F28831205132128831284
:1000400005178316201B272883128513292883125E
:1000500085178316A01A2F28831285113128831241
:1000600085158316201A3728831205113928831223
:10007000051551183D2805143E2805108514032048
:1000800085108316A0194728831205134928831267
:100090000517831620194F288312851351288312C0
:1000A00085178316A01857288312851159288312A3
:1000B0008515831620185F28831205116128831285
:1000C00005155118652805146628051085140320A8
:0E00D0008510511C6D2805206E281020080098
:1000DE0083120313F801F9011030FC00710DF80DB5
:1000EE00F90D7408F8027508031C750FF902031850
:1000FE0087287408F80775080318750FF907031099
:0A010E00F00DF10DFC0B7528080040
:100118008312031351106F088316A000182051147E
:020128000800CD
:10012A0083120313EA01EC01ED011030EE000430F2
:10013A006D020318C628F03086008030F00070087F
:10014A00063E84006E09F000700880000320032038
:10015A000F300605F0007008EB0070080319C0287C
:10016A006C08EA006B080319BE28EB0CEB13EA0AC9
:10017A00B7280430ED00EE0D6E100430EC07ED0ADE
:08018A009C286A08F00008003F
:10019200710DF80DF90D7408F8027508031C750F3E
:1001A200F902F00DF10D0F30FC00710DF80DF90D93
:1001B2007408701CE228F8027508031C750FF90216
:1001C200E728F80775080318750FF907F00DF10D08
:1001D200FC0BD6287018F3287408F8077508031862
:0801E200750FF9070000080089
:0E01EA008312031350088A004F088200080099
:0E01F800033083120313FD00FD0B00290800E5
:1002060083120313ED0105306D02031811296D08E1
:100216006C07840020308000ED0A06296D086C0703
:1002260084008001ED036D086C07EE000A30F400CF
:10023600F5016A08F0006B08F1006F207808F000FD
:100246007908F1003030F0076E08840070088000ED
:100256000A30F400F5016A08F0006B08F1006F201F
:100266007008EA007108EB0000307106031D3D2995
:1002760000307006031D40294229ED0316290800A7
:100286005529803083120313EA006829C030EA003A
:1002960068299430EA006829D430EA006829803059
:1002A600EA006829831203136A08013A03194429EC
:1002B6006A08023A031949296A08033A03194C29BC
:1002C6006A08043A03194F2952296B03F0006A0899
:1002D600F0077008EA0070088316A0001820511075
:1002E600ED016D086C0784000008031982296D086A
:1002F6006C0784000008EF008C20ED0A7429511465
:020306000800ED
:1003080083120313E601E7016108E8006208E900C7
:1003180080306206F00080307002031D952900309D
:1003280061020318A3290130E6000030E7006108E4
:10033800003CE8006208031C013EE901E902680884
:10034800EA006908EB006308EC0003210630E400CA
:100358000030E5006508003C031DB4296408003C32
:100368000318CF2964086307F20001306402F00023
:100378000030031C013E6502F10070086307840029
:100388000008F00072088400700880000130E40260
:10039800031CE503AE29630884002030800066084A
:1003A80067040319ED29E401E50164086307840083
:1003B8000008203A031DE429E40A0319E50AD929AB
:1003C8000130E402031CE5036408630784002D3050
:0403D8008000080099
:1003DC0095207008E1000F300605F0000319F8298C
:0A03EC00FC20F1296108F000080070
:1003F60083120313FB01FA01F9018030F800F10CB6
:10040600F00C031C0F2A7408F90775080318750FFA
:10041600FA070318FB0A0310F01F172A7408FA07D5
:1004260075080318750FFB07FB0CFA0CF90CF80C92
:10043600031C022A7B08F3007A08F2007908F1000F
:060446007808F000080038
:10044C0083120313B501B601B701B801B901BA01A2
:10045C00BB01BC01A401A501A601A701A801A9012A
:10046C00A001A101A201A301CD01CE01013083168F
:10047C00A00018200130EA000130EB003F30EC0006
:10048C004321C0308316A00018200F308316A00023
:04049C00182008001C
:1004A0008316031385100510051185118513051397
:1004B000831285100510051385138511051105207C
:1004C00005200520851505158514032085100520B8
:1004D0008514032085100520851403208510052030
:1004E000051185140320851005208514032085102F
:1004F00085110517851403208510052005130515A2
:10050000851403208510051185140320851005200E
:1005100085140320851005158514032085100520FA
:1005200005118514032085100517851785150515F8
:0C053000851403208510052051140800DC
:10053C00803083120313F0007008063E8400FF30F5
:04054C008000080023
:10055000F5208A110A128000840ACF0A0319D00AF2
:08056000F003031DA82A0800A6
:10056800831203137408003A031DC32A7508003A5E
:10057800031DC32AFF30F0007F30F1001C2B8312CB
:100588000313FD01F901F80171087004031900341F
:1005980071087506FA00FA1BFD09FB01F51FD92A37
:1005A800F409F509F40A0319F50AF11FE02AF0091C
:1005B800F109F00A0319F10A71087504FA00FA1B27
:1005C800F52AC9207B18082BFD1F0034F009F10912
:1005D800F00A0319F10AF809F909F80A0319F90ADE
:1005E8000034F51F042BF11B002B7108F90070086B
:1005F800F800F101F001E82AF101F001F00A0034F5
:10060800F109F009FB0AE52AF80A0319F90A74083E
:100618007802031DE82A75087902031DE82AF90102
:10062800F801F00A0319F10AF11FE82A0000FF3463
:020638000800B8
:10063A00B0250730831203139F00831685018312A6
:10064A0085019E2250222622EE217008BD00BE019D
:10065A004130FC00EE30FD00FD0B312BFC0B312B41
:10066A0000003D083E040319292B892B0730AA00F4
:10067A000030AB000A2C0430AA000030AB000A2C70
:10068A000130AA000030AB000A2CAA01AB010A2CE7
:10069A000830AA000030AB000A2C0530AA0000304E
:1006AA00AB000A2C0230AA000030AB000A2C093039
:1006BA00AA000030AB000A2C0930AA000030AB00B7
:1006CA000A2C0630AA000030AB000A2C0330AA001C
:1006DA000030AB000A2C3D30AA00AB010A2C2F30A7
:1006EA00AA00AB010A2C2A30AA00AB010A2C2D3031
:1006FA00AA00AB010A2C2B30AA00AB010A2CFF304E
:10070A00AA00FF30AB000A2C00303E06031D8F2BD7
:10071A0001303D0603193B2B00303E06031D972B83
:10072A0002303D060319402B00303E06031D9F2B65
:10073A0003303D060319452B00303E06031DA72B47
:10074A0004303D0603194A2B00303E06031DAF2B29
:10075A0005303D0603194D2B00303E06031DB72B0D
:10076A0006303D060319522B00303E06031DBF2BEF
:10077A0007303D060319572B00303E06031DC72BD1
:10078A0008303D0603195C2B00303E06031DCF2BB3
:10079A0009303D060319612B00303E06031DD72B95
:1007AA000A303D060319662B00303E06031DDF2B77
:1007BA000B303D0603196B2B00303E06031DE72B59
:1007CA000C303D060319702B00303E06031DEF2B3B
:1007DA000D303D060319742B00303E06031DF72B1E
:1007EA000E303D060319782B00303E06031DFF2B01
:1007FA000F303D0603197C2B00303E06031D072CE3
:10080A0010303D060319802B842B80302B06F00014
:10081A0080307002031D132C00302A02031C952C11
:10082A008030F00080302B067002031D1E2C2A082F
:10083A00093C031C952C00304E06031D262C003063
:10084A004D06031D352C2A08A2002B08A3003030C0
:10085A002A07EF008C200130CD000030CE00952C05
:10086A0000304E06031D3B2C01304D06031D5B2C48
:10087A002A08A0002B08A10030302A07EF008C209C
:10088A002208F0002308F1000A30F4000030F500D5
:10089A00FB2120087007BB0071080318013E2107DD
:1008AA00BC000230CD000030CE00952C00304E0640
:1008BA00031D612C03304D06031D702C2A08A60067
:1008CA002B08A70030302A07EF008C200430CD0017
:1008DA000030CE00952C00304E06031D762C0430D5
:1008EA004D06031D952C2A08A4002B08A5003030BC
:1008FA002A07EF008C202608F0002708F1000A30AA
:10090A00F4000030F500FB2124087007B9007108D3
:10091A000318013E2507BA000530CD000030CE008D
:10092A0000302B06031D9B2C2B302A060319B62CEC
:10093A0000302B06031DA32C2D302A060319B62CD2
:10094A0000302B06031DAB2C2A302A060319B62CBD
:10095A0000302B06031DB32C2F302A060319B62CA0
:10096A00C92C00304E06031DBC2C02304D06031D57
:10097A00C92C2A08A8002B08A9002A08EF008C20F5
:10098A000330CD000030CE0000302B06031DCF2CE3
:10099A003D302A06031D7A2D00304E06031DD72C42
:1009AA0005304D06031D7A2D292D39083B07B50060
:1009BA003C080318013E3A07B6000030B61BFF3068
:1009CA00B700B800492D39083B02B5003A08031CA4
:1009DA00013E3C02B6000030B61BFF30B700B8003B
:1009EA00492D3B08F0003C08F1003908F4003A08A8
:1009FA00F500FB217008B5007108B6000030B61B7F
:100A0A00FF30B700B800492D00303A06031D0F2DFC
:100A1A00003039060319242D3908F4003A08F50084
:100A2A003B08F0003C08F100B4227008B5007108D8
:100A3A00B6000030B61BFF30B700B800282DB5014C
:100A4A00B601B701B801492D00302906031D2F2D23
:100A5A002B3028060319DA2C00302906031D372DFE
:100A6A002D3028060319E82C00302906031D3F2DD6
:100A7A002A3028060319F62C00302906031D472DB3
:100A8A002F3028060319092D01308316A0001820DB
:100A9A000130EA000130EB002C30EC00432135082C
:100AAA00E1003608E2005230E30084210230EA0015
:100ABA000130EB005230EC004321EE217008BD00FA
:100ACA00BE014130FC00EE30FD00FD0B6A2DFC0B2F
:100ADA006A2D000000303E06031D752D01303D06CB
:0E0AEA00031D782D792D622D2622292B7B2DC0
:100B6000203084002F3083120313F0008130CF0037
:080B70000530D000A8220800A6
:040B02000034003487
:040B06000034003483
:040B0A00003400347F
:040B0E00003400347B
:040B12000034003477
:040B16000034003473
:100B1A0041346E34733477346534723420343D345E
:020B2A00003495
:080B2C000034003400340034F1
:040B34000034003455
:040B38000034003451
:040B3C00003400344D
:100B400045346E3474346534723420345634613430
:0C0B50006C347534653473343A3400346E
:040B5C00003400342D
:02400E00782117
:00000001FF
