:020000002429B1
:1000060083120313FB01FA01F9018030F800F10CA9
:10001600F00C031C17287408F90775080318750FE8
:10002600FA070318FB0A0310F01F1F287408FA07C3
:1000360075080318750FFB07FB0CFA0CF90CF80C86
:10004600031C0A287B08F3007A08F2007908F100FD
:060056007808F00008002C
:10005C00710DF80DF90D7408F8027508031C750F75
:10006C00F902F00DF10D0F30FC00710DF80DF90DCA
:10007C007408701C4728F8027508031C750FF902E8
:10008C004C28F80775080318750FF907F00DF10DDA
:10009C00FC0B3B28701858287408F80775080318CF
:0800AC00750FF90700000800C0
:1000B400831603138611831212150C30970408005B
:1000C400831203137008F100F0010830FC0071087A
:1000D400F40C03187128FC0B6A28F1010034031096
:1000E4007628F40C0318F107F10CF00CFC0B7328C0
:0200F400080002
:0C00F600831203139501171297120800E3
:10010200831203137408003A031D90287508003AFD
:10011200031D9028FF30F0007F30F100E9288312A0
:100122000313FD01F901F801710870040319003489
:1001320071087506FA00FA1BFD09FB01F51FA628D6
:10014200F409F509F40A0319F50AF11FAD28F009BB
:10015200F109F00A0319F10A71087504FA00FA1B91
:10016200C2282E207B18D528FD1F0034F009F10982
:10017200F00A0319F10AF809F909F80A0319F90A48
:100182000034F51FD128F11BCD287108F900700841
:10019200F800F101F001B528F101F001F00A003494
:1001A200F109F009FB0AB228F80A0319F90A7408DE
:1001B2007802031DB52875087902031DB528F901D7
:1001C200F801F00A0319F10AF11FB5280000FF3403
:0201D200080023
:1001D400831603131208013EF000F1010318F10A1B
:1001E40083122308F400F50103200630F20070089E
:1001F400F4007108F500720803190529F50CF40CD4
:10020400F513FF3EFE280430F1007408F000710875
:1002140003191029F00D7010FF3E0A2930307005C3
:10022400F3007408F0007508F100F10CF00CF11300
:10023400F10CF00CF113700895000F30970573085A
:040244009704080013
:1002480083120313A20107309F00831686018312CD
:1002580086010630831685008312850112149210D8
:100268006330831692007B205A20851C4129643014
:100278002202031841290A30A207051D49290A301C
:100288002202031C49290A30A2022208F000FF308A
:10029800F40062206430F4000030F500812070081A
:1002A800A300EA208230FC00DD30FD00FD0B5A2956
:0C02B800FC0B5A290000000039296129C4
:02400E0050213F
:00000001FF
