:02000000562880
:10000600831603138601013083128600F201F30181
:100016008030F000803073067002031D14287208C9
:10002600033C031C2F280608F000F00D7010F00D9D
:100036007010700886000230FB000430FC00BA30F5
:10004600FD00FD0B2428FC0B2428FB0B24280000B4
:10005600F20A0319F30A0B28F201F3018030F000CB
:10006600803073067002031D3A287208033C031C95
:1000760055280608F000F00CF013F00CF013700889
:1000860086000230FB000430FC00BA30FD00FD0B98
:100096004A28FC0B4A28FB0B4A280000F20A0319DF
:0600A600F30A31280800F6
:1000AC000730831203139F008316850103205C28FD
:0200BC005E28BC
:02400E006A2125
:00000001FF
