:020000005C287A
:10000600831603138601183083128600F301F40168
:1000160080307406F00080307002031D142803300F
:100026007302031832280608F200F20D7210060851
:10003600F000F00CF0137008720486000230FB002A
:100046000430FC00BA30FD00FD0B2728FC0B2728E6
:10005600FB0B27280000F30A0319F40A0B28F30107
:10006600F40180307406F00080307002031D3D28D4
:100076000330730203185B280608F200F20CF21331
:100086000608F000F00D7010700872058600023048
:10009600FB000430FC00BA30FD00FD0B5028FC0BC1
:1000A6005028FB0B50280000F30A0319F40A3428E1
:0200B600080040
:1000B8000730831203139F008316850103206228EB
:0200C8006428AA
:02400E006A2125
:00000001FF
