:020000001628C0
:0E0006008312031325088A00240882000800D4
:1000140003208A110A128000840AA40A0319A50A7B
:08002400F003031D0A28080087
:10002C0083120313A001A101FF30A200FF30A30033
:10003C00013083168500803086008312850186018D
:10004C00861F6C2800302106031D2E280030200648
:10005C00031D6C2802302207F10023080318013E0F
:10006C00F2007108A2007208A3008030F00080300A
:10007C0072067002031D44287108093C03184A28B3
:10008C000130A2000030A3002208723EF0000030C4
:10009C000318013E2307F1007008A4007108A500A5
:1000AC0003208A110A1286000130A0000030A10042
:1000BC000230FB000430FC00BA30FD00FD0B64285C
:1000CC00FC0B6428FB0B642800007028861B70282E
:0800DC00A001A10126287128F2
:1000E4003F3406345B344F3466346D347D34073426
:0400F4007F346F34B2
:02400E00782117
:00000001FF
