:020000001628C0
:0E0006008312031327088A00260882000800D0
:1000140003208A110A128000840AA60A0319A70A77
:08002400F003031D0A28080087
:10002C0083120313A001A101A201A3010330A400B8
:10003C00A50101308316850080308600831285016E
:10004C008601861F762800302106031D2F280030DC
:10005C002006031D7628A20A0319A30A8030250660
:10006C00F000803023067002031D3E282208240273
:10007C0003185428A201A301A40A0319A50A80306D
:10008C00F000803025067002031D4E282408053C24
:10009C00031854280330A4000030A50022087C3E2D
:1000AC00F00000300318013E2307F1007008A60091
:1000BC007108A70003208A110A1286000130A000E3
:1000CC000030A1000230FB000430FC00BA30FD000F
:1000DC00FD0B6E28FC0B6E28FB0B6E2800007A289B
:0C00EC00861B7A28A001A10127287B2890
:1000F8003F3406345B344F3466346D347D34073412
:040108007F346F349D
:02400E006A2125
:00000001FF
