:020000001628C0
:0E0006008312031325088A00240882000800D4
:1000140003208A110A128000840AA40A0319A50A7B
:08002400F003031D0A28080087
:10002C0083120313A001A101A201A30101308316C5
:10003C00850080308600831285018601861F60282A
:10004C0000302106031D2C2800302006031D6028DB
:10005C00A20A0319A30A8030F00080302306700234
:10006C00031D3A2822080A3C03183E28A201A301CA
:10007C002208663EF00000300318013E2307F10011
:10008C007008A4007108A50003208A110A128600CA
:10009C000130A0000030A1000230FB000430FC0055
:1000AC00BA30FD00FD0B5828FC0B5828FB0B5828C8
:1000BC0000006428861B6428A001A101242865285F
:1000CC003F3406345B344F3466346D347D3407343E
:0400DC007F346F34CA
:02400E0010217F
:00000001FF
