:020000001329C2
:0E000600213083120313FD00FD0B07280800B4
:06001400000000000800DE
:10001A000F3083120313FC004730FD00FD0B132839
:0A002A00FC0B132800000000080082
:1000340083120313B41B2028861321288617341B2C
:100044002528061326280617B41A2A2886122B28D0
:100054008616341A2F280612302806162B18342830
:1000640006143528061086140A208610B4193C2874
:1000740086133D288617341941280613422806178B
:10008400B418462886124728861634184B280612B8
:100094004C2806162B1850280614512806108614CE
:1000A4000A2086102B1C58280D20592803200800EC
:0E00B400831203132E088A002D088200080014
:1000C200831203132B103308B4001A202B140800D8
:1000D2007B28803083120313AF008E28C030AF001C
:1000E2008E289430AF008E28D430AF008E28803016
:1000F200AF008E28831203132F08013A03196A28CE
:100102002F08023A03196F282F08033A031972289D
:100112002F08043A0319752878283003F0002F08B5
:10012200F0077008AF007008B4001A202B10B2015B
:1001320032083107840000080319A7283208310762
:1001420084000008B3006120B20A99282B14080029
:1001520083160313861006100612861206138613E0
:1001620083128610061086130613861206120D20BD
:100172000D200D208616061686140A2086100D20E4
:1001820086140A2086100D2086140A2086100D205F
:10019200061286140A2086100D2086140A20861064
:1001A2008612861786140A2086100D2086130616DC
:1001B20086140A208610061286140A2086100D2044
:1001C20086140A208610061686140A2086100D2030
:1001D200061286140A208610861706178616061639
:0C01E20086140A2086100D202B14080043
:1001EE00023083120313FB000430FC00BA30FD0012
:1001FE00FD0BFF28FC0BFF28FB0BFF28000008005F
:10020E005A208A110A128000840AAD0A0319AE0A16
:08021E00F003031D072908008D
:100226002A3083120313A0002A30A1002A30A2002C
:100236002A30A3002A30A4002A30A5002A30A600BE
:100246002A30A700A8019701900183169F018B0110
:10025600073083129F00A9200130B4001A200C3009
:10026600B4001A201A30FC00F830FD00FD0B3929C5
:10027600FC0B392900000130AF000130B0002030FE
:10028600B1006920F7200530A9000030AA0001302E
:10029600AC0011302C0203185D290130B4001A207D
:1002A6000130AF002C08B0002030B1006920F720E3
:1002B600AC0A4C291030AC002C08003C03187029FD
:1002C6000130B4001A200230AF002C08B0002030F4
:0E02D600B1006920F720AC035F294629712989
:02400E006A2125
:00000001FF
